:020000040801F1
:100000001807002029020108310201083302010803
:10001000350201083702010839020108000000001A
:100020000000000000000000000000003B0201088A
:100030003D020108000000003F02010841020108E2
:100040004302010843020108430201084302010878
:100050004302010843020108430201084302010868
:100060004302010843020108430201084302010858
:100070004302010843020108430201084302010848
:100080004302010843020108430201084302010838
:100090004302010843020108430201084302010828
:1000A0004302010843020108430201084302010818
:1000B0004302010843020108430201084302010808
:1000C00043020108430201084302010843020108F8
:1000D000430201084302010843020108E904010840
:1000E00043020108430201084302010843020108D8
:1000F00043020108430201084302010843020108C8
:1001000043020108430201084302010843020108B7
:1001100043020108430201084302010843020108A7
:100120004302010843020108430201084302010897
:100130004302010843020108430201084302010887
:100140004302010843020108430201084302010877
:100150004302010843020108430201084302010867
:100160004302010843020108430201084302010857
:100170004302010843020108430201080000000095
:10018000430201084302010800F002F800F03CF8C5
:100190000AA090E8000C82448344AAF10107DA45E2
:1001A00001D100F031F8AFF2090EBAE80F0013F0F8
:1001B000010F18BFFB1A43F001031847380600006F
:1001C00058060000103A24BF78C878C1FAD8520700
:1001D00024BF30C830C144BF04680C6070470000C1
:1001E0000023002400250026103A28BF78C1FBD840
:1001F000520728BF30C148BF0B6070471FB500F0E1
:10020000F3FA1FBD10B510BD00F031F81146FFF72D
:10021000F5FF00F097FA00F04FF803B4FFF7F2FF94
:1002200003BC00F057F80000094880470948004720
:10023000FEE7FEE7FEE7FEE7FEE7FEE7FEE7FEE796
:10024000FEE7FEE704480549054A064B70470000F3
:100250008504010889010108180100201807002001
:100260001803002018030020704770477047754638
:1002700000F02CF8AE4605006946534620F0070012
:10028000854618B020B5FFF7DDFFBDE820404FF0F0
:1002900000064FF000074FF000084FF0000B21F070
:1002A0000701AC46ACE8C009ACE8C009ACE8C0093D
:1002B000ACE8C0098D46704710B50446AFF3008026
:1002C0002046BDE81040FFF7A8BF00000048704777
:1002D000B800002001491820ABBEFEE7260002004E
:1002E000704700002DE9F041DDE90656089C4C4FAF
:1002F000B84208D14B4F3F6847F00107DFF824C1EF
:10030000CCF8007022E0484FB84208D1454F3F6812
:1003100047F00207DFF80CC1CCF8007016E0434F3D
:10032000B84208D13F4F3F6847F00407DFF8F4C0F8
:10033000CCF800700AE03E4FB84207D1394F3F6811
:1003400047F00807DFF8DCC0CCF8007007684FEA18
:1003500041084FF0030C0CFA08FC27EA0C07076071
:1003600007684FEA410C02FA0CFC47EA0C070760E9
:10037000476803FA01FC47EA0C07476087684FEAC1
:1003800041084FF0030C0CFA08FC27EA0C078760C1
:1003900087684FEA410C05FA0CFC47EA0C078760B6
:1003A000C7684FEA41084FF0030C0CFA08FC27EA33
:1003B0000C07C760C7684FEA410C06FA0CFC47EA15
:1003C0000C07C760082912DA076A4FEA81084FF064
:1003D0000F0C0CFA08FC27EA0C070762076A4FEAC1
:1003E000810C04FA0CFC47EA0C07076215E0476A27
:1003F0004FEA810CACF1200C4FF00F0808FA0CF812
:1004000027EA08074762476A4FEA810CACF1200CE3
:1004100004FA0CFC47EA0C074762BDE8F0810000D3
:100420000000024030380240000402400008024050
:10043000000C024010B500F029F927200021002807
:1004400004DB0A07130E0D4A135406E00A07140EC4
:100450000B4A00F00F031B1FD45400BF27200028B5
:1004600009DB00F01F02012191404209920002F1D4
:10047000E022C2F8001100BF10BD000000E400E05F
:1004800018ED00E01448006840F47000124908605C
:100490001248006840F001001049086000200F4930
:1004A000083108600D4800680D4908400B49086094
:1004B0000C48091D0860081F006820F48020091FEF
:1004C0000860002005490C3108604FF000600249C7
:1004D000803908607047000088ED00E00038024075
:1004E000FFFFF6FE1030002410B500BF0D48006875
:1004F00000F020000028F9D00A48001D00680A49D1
:1005000008700846007860B1084600780D2803D1CD
:100510000A21044800F04EF903480178014800F030
:1005200049F910BD00480040580000202DE9F04F67
:100530000446884691469A46DDE9097B4A4884424A
:1005400006D14A48006840F010004849086038E089
:100550004748844208D14548001F006840F40030F5
:100560004249091F08602CE04248844208D13F48B4
:10057000001F006840F480203C49091F086020E00B
:100580003D48844208D13948001F006840F40020EB
:100590003649091F086014E03848844208D13348BE
:1005A000001F006840F480103049091F086008E00F
:1005B0003348844205D12D48006840F020002B4983
:1005C0000860E06840EA0830E060206920F44050AC
:1005D0002061206940EA09302061E06840EA8A2011
:1005E000E060E06840EAC730E0601F48844202D023
:1005F000234884420CD13A465946224800F053F829
:1006000006463A4659461F4800F092F805460BE068
:100610003A4659461C4800F046F806463A465946BE
:10062000194800F085F80546102E00DB1FB1082E92
:1006300004DB012F02D10026681C85B2A06830437C
:10064000A060A06840EA0510A060E06840F00800E3
:10065000E060E06840F00400E060E06840F40050D2
:10066000E060BDE8F08F0000001001404438024017
:100670000044004000480040004C00400050004052
:10068000001401400048E8010024F40000B50248CD
:1006900000F004F800BD000000480040C16841F0CF
:1006A0002001C160704730B50346C2F10200C000AE
:1006B0004843B3FBF0F400FB143080B200EE900A24
:1006C000C2F10200C000484301EE900AF8EE611A40
:1006D000B8EE602AC2EE212AB0EE621AF3EE001ADA
:1006E00061EE211AB0EE610AF2EE041A60EE211AF0
:1006F000FCEEE11A11EE900A84B2FCEEC01A11EE83
:10070000900A80B20A2505FB10402C4690FBF4F5B8
:1007100004FB1500052805DBF7EE001A70EE211A20
:10072000B0EE610AFCEEC01A11EE900A80B230BD44
:1007300010B50346C2F10204E4004C43B3FBF4F4E9
:10074000A0B210BD0EB5072000210322CDE9002183
:10075000029013480179002302221248FFF7C2FDDC
:10076000072000210322CDE9002102900C484179A5
:10077000002302220B48FFF7B5FD4FF4165000216D
:100780000B460A46CDE900100748FFF7CFFEFFF7FA
:1007900051FE072205A1044800F014F800BFFEE74F
:1007A0007C00002000040240004800407374617225
:1007B000743A200000BF026802F08002002AFAD0DA
:1007C0004160704770B505460B461446002606E0AA
:1007D0003046721CD6B2195C2846FFF7EBFF201E8C
:1007E000A4F10104F4D170BD4FF04070E1EE100AA5
:1007F000704700001408010800000020B800000045
:10080000C4010108CC080108B800002060060000FF
:10081000E001010800100140090A08000010014031
:100820000607FF00004400400203040000440040AB
:1008300005060700004800400A0B0C000048004075
:100840000A0B0C000048004008090A00004C004058
:100850000001FF00004C00400A0BFF0000140140A3
:1008600006070800005000400C02FF0000000000D6
:1008700000100140090A0800001001400607FF00AF
:100880000044004002030400004400400506070045
:10089000004800400A0B0C00004800400A0B0C0006
:1008A0000048004008090A00004C00400001FF0019
:1008B000004C00400A0BFF0000140140060708002E
:0C08C000005000400C02FF00000000008F
:040000050801018964
:00000001FF
