:020000040800F2
:10000000600600200D020008150200081702000813
:10001000190200081B0200081D0200080000000071
:100020000000000000000000000000001F020008A7
:100030002102000800000000230200082502000839
:1000400027020008270200082702000827020008EC
:1000500027020008270200082702000827020008DC
:1000600027020008270200082702000827020008CC
:1000700027020008270200082702000827020008BC
:1000800027020008270200082702000827020008AC
:10009000270200082702000827020008270200089C
:1000A000270200082702000827020008270200088C
:1000B000270200082702000827020008270200087C
:1000C000270200082702000827020008270200086C
:1000D000270200082702000827020008270200085C
:1000E000270200082702000827020008270200084C
:1000F000270200082702000827020008270200083C
:10010000270200082702000827020008270200082B
:10011000270200082702000827020008270200081B
:10012000270200082702000827020008270200080B
:1001300027020008270200082702000827020008FB
:1001400027020008270200082702000827020008EB
:1001500027020008270200082702000827020008DB
:1001600027020008270200082702000827020008CB
:1001700027020008270200082702000800000000EC
:10018000270200082702000800F002F800F02EF80D
:100190000AA090E8000C82448344AAF10107DA45E2
:1001A00001D100F023F8AFF2090EBAE80F0013F006
:1001B000010F18BFFB1A43F001031847B0030000FA
:1001C000C00300000023002400250026103A28BFA9
:1001D00078C1FBD8520728BF30C148BF0B607047B9
:1001E0001FB500F0BDF91FBD10B510BD00F031F80E
:1001F0001146FFF7F5FF00F051F900F04FF803B496
:10020000FFF7F2FF03BC00F057F8000009488047F1
:1002100009480047FEE7FEE7FEE7FEE7FEE7FEE7E8
:10022000FEE7FEE7FEE7FEE704480549054A064B00
:1002300070470000390400088901000860000020B0
:1002400060060020600200206002002070477047B6
:100250007047754600F02CF8AE46050069465346D7
:1002600020F00700854618B020B5FFF7DDFFBDE898
:1002700020404FF000064FF000074FF000084FF00D
:10028000000B21F00701AC46ACE8C009ACE8C0099E
:10029000ACE8C009ACE8C0098D46704710B504460B
:1002A000AFF300802046BDE81040FFF7A8BF000074
:1002B000004870470000002001491820ABBEFEE74F
:1002C00026000200704700002DE9F041DDE90656E6
:1002D000089C4C4FB84208D14B4F3F6847F001078C
:1002E000DFF824C1CCF8007022E0484FB84208D1B2
:1002F000454F3F6847F00207DFF80CC1CCF80070AB
:1003000016E0434FB84208D13F4F3F6847F004071B
:10031000DFF8F4C0CCF800700AE03E4FB84207D1D5
:10032000394F3F6847F00807DFF8DCC0CCF80070B1
:1003300007684FEA41084FF0030C0CFA08FC27EA63
:100340000C07076007684FEA410C02FA0CFC47EA09
:100350000C070760476803FA01FC47EA0C0747608F
:1003600087684FEA41084FF0030C0CFA08FC27EAB3
:100370000C07876087684FEA410C05FA0CFC47EAD6
:100380000C078760C7684FEA41084FF0030C0CFA6E
:1003900008FC27EA0C07C760C7684FEA410C06FA59
:1003A0000CFC47EA0C07C760082912DA076A4FEA13
:1003B00081084FF00F0C0CFA08FC27EA0C070762C3
:1003C000076A4FEA810C04FA0CFC47EA0C07076243
:1003D00015E0476A4FEA810CACF1200C4FF00F0892
:1003E00008FA0CF827EA08074762476A4FEA810CC7
:1003F000ACF1200C04FA0CFC47EA0C074762BDE89C
:10040000F081000000000240303802400004024049
:1004100000080240000C024010B5826901F110038F
:1004200001249C402243826110BD826901238B40DC
:100430001A438261704700001448006840F470005D
:10044000124908601248006840F001001049086035
:1004500000200F49083108600D4800680D49084028
:100460000B4908600C48091D0860081F006820F44B
:100470008020091F0860002005490C3108604FF0FA
:1004800000600249803908607047000088ED00E094
:1004900000380240FFFFF6FE1030002488B0002034
:1004A00007900690059040F6B83004900020039025
:1004B0000222CDE90020034602460146029026486A
:1004C000FFF702FF00200222CDE9002003460122AF
:1004D0000E2102902148FFF7F7FE3CE01E4800691C
:1004E00000F0010018B39DF81C00F8B9BDF8180021
:1004F000BDF81010884212DD9DF80C0030B90120C3
:1005000003900E211548FFF790FF05E000200390AF
:100510000E211248FFF780FF012007901BE0BDF875
:100520001800401C80B206900020059013E09DF852
:100530001C0001280FD1BDF81400BDF8101088422E
:1005400002DD0020079006E0BDF81400401C80B2D8
:10055000059000200690C1E700000240000C024018
:100560004FF04070E1EE100A704700007C05000873
:0C0570000000002060060000C40100082C
:040000050800020DE0
:00000001FF
