:020000040800F2
:10000000000002206D0D0008B50D0008B50D0008B8
:10001000B50D0008B50D0008B50D00080000000082
:10002000000000000000000000000000B50D000806
:10003000B50D000800000000B50D0008A101000882
:10004000B50D0008B50D0008B50D0008B50D000888
:10005000B50D0008B50D0008B50D0008B50D000878
:10006000B50D0008B50D0008B50D0008B50D000868
:10007000B50D0008B50D0008B50D0008B50D000858
:10008000B50D0008B50D0008B50D0008B50D000848
:10009000B50D0008B50D0008B50D0008B50D000838
:1000A000B50D0008B50D0008B50D0008B50D000828
:1000B000B50D0008B50D0008B50D0008B50D000818
:1000C000B50D0008B50D0008B50D0008B50D000808
:1000D000B50D0008B50D0008B50D0008B50D0008F8
:1000E000B50D0008B50D0008B50D0008B50D0008E8
:1000F000B50D0008B50D0008B50D0008B50D0008D8
:10010000B50D0008B50D0008B50D0008B50D0008C7
:10011000B50D0008B50D0008B50D0008B50D0008B7
:10012000B50D0008B50D0008B50D0008B50D0008A7
:10013000B50D0008B50D0008B50D0008B50D000897
:10014000B50D0008B50D0008B50D0008B50D000887
:10015000B50D0008B50D0008B50D0008B50D000877
:10016000B50D0008B50D0008B50D0008B50D000867
:10017000B50D0008B50D0008B50D0008B50D000857
:08018000B50D0008B50D0008E3
:1001880082B0044A0190019B13601368002BFCD1D4
:1001980002B0704728000020034B1A6812B11A6891
:1001A800013A1A60704700BF280000200B490C4B29
:1001B8000A6B42F008020A631A6842F080521A6019
:1001C8005A6822F480425A609A6842F040529A6013
:1001D800DA6822F04052DA60704700BF0038024007
:1001E800000C0240704700BF39493A4BD1F88820CB
:1001F800394842F47002C1F888201A68002142F098
:1002080001021A6099601A6822F0847222F480321E
:100218001A6058601A6882B022F480221A60D96085
:10022800009101911A6842F480321A601A4603E07C
:10023800009BB3F5A06F09D0136803F40033019352
:10024800009B01330093019B002BF1D0214B1B68CD
:1002580013F4003318BF01230193019B012B05D030
:100268001B4B4FF000629A6002B07047194B1B4954
:100278001A6C1B4842F080521A640A6842F48042A1
:100288000A609A689A609A6842F400429A609A688A
:1002980042F4A0529A6058601A6842F080721A605C
:1002A8001A4611680B4B8901FBD50E4A40F20561CD
:1002B80011609A6822F003029A609A6842F002027A
:1002C8009A601A46936803F00C03082BFAD1C7E723
:1002D80000ED00E0003802401030002400700040BB
:1002E80008544007003C02401848836803F00C0398
:1002F800042B28D0082B09D0154B144A15499268AD
:10030800C2F303128A5CD3400B61704743684168AB
:1003180013F4800F436818BF0F4801F03F020CBF69
:100328000B49B0FBF2F1C3F3881308BFB1FBF2F13C
:1003380001FB03F2054B5B68C3F3014301335B0028
:10034800B2FBF3F3D9E7044BD7E700BF003802400C
:100358000024F4000000002000127A0000207047FA
:100368000020704701207047002070474FF0FF3091
:10037800704700BF00207047064B186838B1014429
:100388006A46914294BF19604FF0FF3070470248A7
:100398001860F4E7240000203000002070B5161E15
:1003A8000EDD0C468D1914F8011B064800F034F9CF
:1003B8004021044800F0F4F90028F9D0AC42F2D109
:1003C800304670BD00440040080E000800000020C0
:1003D80024000020240000203000002008B52B4B0A
:1003E800984219D02A4B984220D02A4B984229D0BB
:1003F800294B984232D0294B98423BD0284B9842FF
:1004080000D008BD0121202000F0CAFB00212020D7
:10041800BDE8084000F0C4BB0121102000F0C0FB7B
:1004280000211020BDE8084000F0BABB01214FF4BC
:10043800003000F0A7FB00214FF40030BDE8084071
:1004480000F0A0BB01214FF4802000F09BFB0021AD
:100458004FF48020BDE8084000F094BB01214FF420
:10046800002000F08FFB00214FF40020BDE8084079
:1004780000F088BB01214FF4801000F083FB0021BD
:100488004FF48010BDE8084000F07CBB001001402C
:100498000044004000480040004C0040005000402C
:1004A80000140140028A0B89F0B592B2CF888E8879
:1004B800044622F440523A4348890D4689892282EB
:1004C800A289334392B2034322F4B05222F00C02C1
:1004D8009BB21343A381A38A9BB223F440730B43BB
:1004E80085B0A382684600F067FA1D4B9C4228D06D
:1004F80003F580639C4224D0029AA389A18913F44E
:10050800004F2B6802EB820214BF5B009B0002EBDA
:100518008202B2FBF3F0134AA2FB00356D09642393
:10052800090405FB13034FEA05150CD41B013233EC
:10053800A2FB0323C3F343132B439BB2238105B0D0
:10054800F0BD039AD9E7D9003231A2FB0131C1F3DA
:10055800421242EA05039BB2238105B0F0BD00BFF9
:10056800001001401F85EB5100234FF416510C2257
:10057800016042818380C38003818381704700BF0B
:1005880030B44A880D888C88038AC9882A43224354
:100598000A439BB292B223F470631343038230BCC4
:1005A800704700BF0023038043808380C380704767
:1005B800838929B923F400531B041B0C83817047DA
:1005C8009BB243F400538381704700BF038B03F44D
:1005D8007F430383038B9BB219430183704700BF9A
:1005E800838919B9C3F30E03838170476FEA4343C4
:1005F8006FEA53439BB28381704700BF838A29B94E
:1006080023F400631B041B0C838270479BB243F4E2
:1006180000638382704700BFC1F30801818070477F
:100628008088C0F308007047038A23F00F031B0477
:100638001B0C0382038A9BB219430182704700BFD7
:10064800838929B923F002031B041B0C838170479B
:100658009BB243F002038381704700BF838923F470
:1006680000631B041B0C838183899BB2194381811E
:10067800704700BF038A23F020031B041B0C03826E
:10068800038A9BB219430182704700BF038A29B9C4
:1006980023F480431B041B0C038270479BB243F472
:1006A80080430382704700BF83899BB243F00103F4
:1006B80083817047838A29B923F008031B041B0C24
:1006C800838270479BB243F008038382704700BF60
:1006D800038BDBB20383038B9BB243EA01210183C3
:1006E800704700BF838A29B923F020031B041B0C21
:1006F800838270479BB243F020038382704700BF18
:10070800838A29B923F010031B041B0C83827047CA
:100718009BB243F010038382704700BF838A23F0A3
:1007280004031B041B0C8382838A9BB219438182B6
:10073800704700BF838A29B923F002031B041B0CEE
:10074800838270479BB243F002038382704700BFE5
:10075800838A9BB21AB923EA01018182704719433F
:100768008182704710B401F01F04C1F342110123C4
:10077800012903FA04F311D002290CBF10301430F8
:1007880032B902685DF8044B22EA0303036070473C
:1007980002685DF8044B1343036070470C30EFE7C1
:1007A8000388194214BF012000207047C94389B249
:1007B80001807047C1F3421210B4012301F01F04F5
:1007C800012A03FA04F317D0022A0CBF028A828A8C
:1007D80092B21340028892B253B10123090A03FA74
:1007E80001F10A4214BF184600205DF8044B704717
:1007F80018465DF8044B7047828992B21340E9E7C6
:10080800090A012303FA01F1C94389B2018070473B
:100818000A4B0B481A68002142F001021A609960DD
:100828001A6822F0847222F480321A6058601A68BA
:1008380022F480221A60D960704700BF0038024055
:1008480010300024024B00221A701870704700BF45
:100858000238024082B000230A4A019302E0B3F54D
:10086800A06F08D0136813F4003F019B03F1010344
:100878000193019BF3D0034B1868C0F3404002B0CA
:10088800704700BF00380240034A136823F0F8039A
:1008980043EAC0001060704700380240014B1860FE
:1008A800704700BF00004742064B002201281A701B
:1008B8001A7005D0042802D105221A7070477047B3
:1008C8001870704770380240014B1860704700BFBD
:1008D800800E474230B4029C064D40EA0460014352
:1008E8005B08013B41EA821242EA0340686030BC7F
:1008F800704700BF00380240014B1860704700BFC6
:10090800600047420907034B41EA8010C3F884009E
:10091800704700BF00380240014B1860704700BFA5
:1009280068004742014B1860704700BF4C004742BF
:10093800034A936823F0EC631943084390607047B7
:1009480000380240034A936823F078431943084368
:100958009060704700380240034A936823F003030D
:1009680018439060704700BF00380240024B9868F7
:1009780000F00C00704700BF00380240034A93683B
:1009880023F0F00318439060704700BF003802401E
:10099800034A936823F4E05318439060704700BFFC
:1009A80000380240034A936823F4604343EAC000D6
:1009B800906070470038024010B4214CA36803F0DF
:1009C8000C03042B1BD0082B1CD01E4B03601C4AA5
:1009D8001D499468C4F303140C5DE34043609468B4
:1009E800C4F382240C5D23FA04F4846092685DF8F1
:1009F800044BC2F342328A5CD340C3607047134B46
:100A08000360E4E76368616813F4800F636818BFE4
:100A18000E4C01F03F020CBF0A49B4FBF2F1C3F3DC
:100A2800881308BFB1FBF2F101FB03F2044B5B68CA
:100A3800C3F3014301335B00B2FBF3F30360C6E782
:100A4800003802400024F4001400002000127A004C
:100A580000F44073B3F5407F09D108498B6820F052
:100A6800704223F4F81322F4407213438B60034A54
:100A7800136FC0F30B00184310677047003802402B
:100A8800014B1860704700BF3C0E4742014B18608D
:100A9800704700BF400E4742014B1860704700BFC7
:100AA8005C01474229B9054A136B23EA0000106329
:100AB8007047024B1A6B10431863704700380240A6
:100AC80029B9054A536B23EA000050637047024B6B
:100AD8005A6B1043586370470038024029B9054AD9
:100AE800936B23EA000090637047024B9A6B1043A4
:100AF800986370470038024029B9054A136C23EA05
:100B0800000010647047024B1A6C10431864704759
:100B18000038024029B9054A536C23EA00005064A2
:100B28007047024B5A6C10435864704700380240B3
:100B380029B9054A136923EA000010617047024B7E
:100B48001A691043186170470038024029B9054AEC
:100B5800536923EA000050617047024B5A691043F9
:100B6800586170470038024029B9054A936923EA59
:100B7800000090617047024B9A6910439861704772
:100B88000038024029B9054A136A23EA00001062B6
:100B98007047024B1A6A10431862704700380240C7
:100BA80029B9054A536A23EA000050627047024B8C
:100BB8005A6A1043586270470038024029B9054AFA
:100BC800136D23EA000010657047024B1A6D10433D
:100BD800186570470038024029B9054A536D23EA61
:100BE800000050657047024B5A6D104358657047B6
:100BF8000038024029B9054A936D23EA0000906540
:100C08007047024B9A6D1043986570470038024050
:100C180029B9054A136E23EA000010667047024B93
:100C28001A6E1043186670470038024029B9054A01
:100C3800536E23EA000050667047024B5A6E104309
:100C4800586670470038024029B9054A137823EAE4
:100C5800000010707047024B1A78104318707047E4
:100C68000D3802404309012B0BD0022B094B0CBF56
:100C78001B6F5B6F00F01F0023FA00F000F001000B
:100C88007047044B1B6800F01F0023FA00F000F0C7
:100C98000100704700380240024A536F43F08073E6
:100CA8005367704700380240034BDB68184214BF93
:100CB80001200020704700BF00380240014B187027
:100CC800704700BF0E3802401F4B204D1B6820485C
:100CD800204E214C2149224AA5FB03539B09013B85
:100CE80080B400254360F027072386F823708560C9
:100CF8000360236B43F0080323630B6843F08053BE
:100D08000B604B6823F480434B608B6843F040537F
:100D18008B60CB6823F04053CB604B6943F480432E
:100D28004B6114464FF47A704B6943F480434B612E
:100D380010601368002BFCD14D694B61206013686B
:100D4800002BFCD1F0E700BF10000020D34D62104B
:100D580010E000E000ED00E000380240000C024026
:100D680028000020002103E00B4B5B58435004315E
:100D78000A480B4B42189A42F6D30A4A02E000236B
:100D880042F8043B084B9A42F9D3FFF72DFA00F0DA
:100D98000FF8FFF799FF7047080E000800000020C1
:100DA800240000202400002030000020FEE700007E
:100DB80070B50F4E0F4D761BB61018BF002405D026
:100DC800013455F8043B9847A642F9D10A4E0B4D19
:100DD800761BFFF707FAB61018BF002406D00134B7
:100DE80055F8043B9847A642F9D170BD70BD00BFC5
:100DF800080E0008080E0008080E0008080E000873
:100E080000000000000000000102030406070809B2
:100E1800007A030A0000000001020304010203042F
:040E280006070809A8
:0400000508000D6D75
:00000001FF
